:020000040800F2
:10000000F0230024C1030008D9350008B1340008EA
:10001000D1350008E1100008194200080000000076
:100020000000000000000000000000003938000857
:10003000E910000800000000E13500084138000820
:10004000DB030008DB030008DB030008DB03000818
:10005000DB030008DB030008DB030008DB03000808
:10006000DB030008DB030008DB030008DB030008F8
:10007000DB030008DB030008DB030008DB030008E8
:10008000DB030008DB030008DB030008DB030008D8
:10009000DB030008DB030008DB030008DB030008C8
:1000A000DB030008DB030008DB030008DB030008B8
:1000B000DB030008DB030008DB030008DB030008A8
:1000C000DB030008DB030008DB030008DB03000898
:1000D000DB030008DB030008DB030008DB03000888
:1000E000DB030008DB03000800000000DB0300085E
:1000F000DB030008DB030008DB030008DB03000868
:10010000DB030008DB030008DB030008DB03000857
:10011000DB030008DB030008DB030008DB03000847
:10012000DB030008DB030008DB030008DB03000837
:10013000DB030008DB030008DB030008DB03000827
:1001400000000000000000000000000000000000AF
:10015000DB030008DB030008DB030008DB03000807
:10016000DB030008DB030008DB030008DB030008F7
:10017000DB030008DB030008DB03000800000000CD
:10018000DB030008DB030008DB030008DB030008D7
:10019000DB030008DB030008DB030008DB030008C7
:1001A000DB030008DB030008DB030008DB030008B7
:1001B000DB030008DB030008DB030008DB030008A7
:1001C000DB030008DB030008DB030008DB03000897
:1001D000DB030008DB030008DB030008DB03000887
:1001E000DB030008DB030008DB030008DB03000877
:1001F000DB030008DB030008DB030008DB03000867
:10020000DB030008DB030008DB030008DB03000856
:10021000DB030008DB030008DB030008DB03000846
:10022000DB030008DB030008DB030008000000001C
:10023000DB030008DB03000800000000DB0300080C
:10024000DB030008DB030008DB030008DB03000816
:10025000DB030008DB030008DB030008DB03000806
:10026000DB030008DB030008DB030008DB030008F6
:10027000DB030008DB030008DB03000800000000CC
:10028000DB030008DB030008DB03000800000000BC
:1002900000000000DB03000800F002F800F066F840
:1002A0000AA090E8000C82448344AAF10107DA45D1
:1002B00001D100F05BF8AFF2090EBAE80F0013F0BD
:1002C000010F18BFFB1A43F001031847145801002F
:1002D000345801000A444FF0000C10F8013B13F0B1
:1002E000070408BF10F8014B1D1108BF10F8015B8F
:1002F000641E05D010F8016B641E01F8016BF9D182
:1003000013F0080F1EBF10F8014BAD1C0C1B09D1D8
:100310006D1E58BF01F801CBFAD505E014F8016B4A
:1003200001F8016B6D1EF9D59142D6D370470000DC
:100330000023002400250026103A28BF78C1FBD8EE
:10034000520728BF30C148BF0B6070471FB509F086
:10035000B9F89DE8030000F021FB00F07AF900F005
:1003600053FC1FBD10B500F0B8FC10BD00F01DFE21
:100370001146FFF7EBFF05F067FE00F03BFE03B40C
:10038000FFF7F0FF03BC00F085FE00000B49D1F839
:1003900000C04A685CF8043B1068184442F8040B3B
:1003A0008C4528BFA1F1DC0C8A4228BFA1F1DC02F8
:1003B000C1F800C04A6020F000407047580A00248D
:1003C0000948804709480047FEE7FEE7FEE7FEE7E9
:1003D000FEE7FEE7FEE7FEE7FEE7FEE70448054925
:1003E000054A064B70470000893900089902000849
:1003F000F0130024F0230024F01B0024F01B002441
:1004000070B5A0FB0140B4F1805170F1000024BF31
:10041000002070BD204600F007F805001CBF2146F3
:1004200000F08EFC284670BD70B5064600F09AFAC2
:10043000056806F10B0020F00704B4429CBF0020C1
:1004400070BD2B466A68BAB11068A04210D304F19F
:10045000080188423CBF5068586007D351681019A2
:1004600041601168091B016058601460101D70BD67
:1004700013465268002AE7D12146284600F07AFA4E
:100480000028DED170BD70B50446051F00F06AFA81
:100490000068002C14BF446870BD002C18BFAC422B
:1004A0003CBF20466468F8D301680A18AA4218BF06
:1004B000456003D12A680546114401602868411946
:1004C000A1421CBF6C6070BD61686960216808440E
:1004D000286070BD53EA020C00F069802DE9F04BF2
:1004E0004FF00006002B1FBFB3FA83F503FA05F4A3
:1004F00024FA05F65E4012BF1643B2FA82F502FAFC
:1005000005F4C5F120051EBF22FA05FC44EA0C04DF
:10051000203556EA044C4FEA144418BF641C4FF0CF
:1005200000084FF00009904271EB030C39D3002909
:1005300019BFB1FA81F701FA07F6B0FA80F700FAAD
:1005400007F6C7F120071EBF20FA07FC46EA0C0693
:100550002037B6FBF4FCA7EB0507103F07F01F0B95
:10056000CBF120062CFA06F60CFA0BFB44BFB3467F
:100570000026202FA4BF5E464FF0000B5BEA060C5E
:1005800008BF4FF0010B19EB0B0948EB0608ABFB5A
:10059000027C06FB02CC0BFB03CCC01B71EB0C01F5
:1005A000C1E70B46024641464846BDE8F08B13B50D
:1005B000084318BF4FF0FF300146AFF30080BDE89D
:1005C0001C40704770B50446C068810713D0800690
:1005D00001D5A56A04E0A169606808442169451A4B
:1005E000204600F0CDFA002206462946204600F0BB
:1005F00017FA304670BD002070BD70B510B1BDE86F
:100600007040DFE70025074C6E1E07E02046FFF72D
:10061000D9FF00B13546206D20F00104002CF5D142
:10062000284670BD800800240B4910B5A1F17C025A
:100630000A4CC2E93712372106E000EB104342F8BA
:100640002130074B00FB03400B1EA1F10101F4DC3C
:1006500010BD0120E8E70000F8090024E119D66682
:10066000CD0D010040EA010310B59B070FD1042A0C
:100670000DD310C808C9121F9C42F8D020BA19BA6D
:10068000884201D9012010BD4FF0FF3010BD1AB1D2
:10069000D30703D0521C07E0002010BD10F8013B27
:1006A00011F8014B1B1B07D110F8013B11F8014B4E
:1006B0001B1B01D1921EF1D1184610BD10B5431C71
:1006C00002E010F8011B71B18107FAD14FF001323D
:1006D00002C88C1A8C4314EAC211F9D0C01A0A0657
:1006E00003D0C01E10BDC01A10BD0A0401D0801E68
:1006F00010BD0902FCD0401E10BD40EA010370B5D8
:100700009B072ED14FF00136042A2AD308C810C9FE
:100710009D1B9D43121F15EAC61517D0D8B2E1B232
:10072000401A50EA056110D198B2A1B2401A50EABD
:1007300005410AD123F07F4024F07F41401A50EA5E
:10074000052102D1180EA0EB146070BDA342DBD0CE
:1007500018BA21BA884201D9012070BD4FF0FF308C
:1007600070BD0AB9002070BD10F8013B11F8014BB3
:1007700063B1A3420AD1521E08D010F8013B11F810
:10078000014B1BB1A34201D1521EEDD1181B70BD0C
:10079000032A40F2308010F0030C00F0158011F8AD
:1007A000013BBCF1020F624498BF11F801CB00F885
:1007B000013B38BF11F8013BA2F1040298BF00F8D9
:1007C00001CB38BF00F8013B11F0030300F0258096
:1007D000083AC0F0088051F8043B083A51F804CBBD
:1007E000A0E80810F5E7121D5CBF51F8043B40F883
:1007F000043BAFF30080D20724BF11F8013B11F88E
:1008000001CB48BF11F8012B24BF00F8013B00F8D1
:1008100001CB48BF00F8012B704710B5203AC0F05B
:100820000B80B1E81850A0E81850B1E81850A0E8C3
:100830001850203ABFF4F5AF5FEA027C24BFB1E85C
:100840001850A0E8185044BF18C918C0BDE810409F
:100850005FEA827C24BF51F8043B40F8043B08BFA8
:100860007047D20728BF31F8023B48BF11F8012B6F
:1008700028BF20F8023B48BF00F8012B704702F068
:10088000FF0343EA032242EA024200F05BBA4FF060
:10089000000200B5134694469646203922BFA0E8D0
:1008A0000C50A0E80C50B1F12001BFF4F7AF0907DC
:1008B00028BFA0E80C5048BF0CC05DF804EB8900CD
:1008C00028BF40F8042B08BF704748BF20F8022B10
:1008D00011F0804F18BF00F8012B70470000000096
:1008E00030B44FF0013C50F8042BCCFA52F451F8DC
:1008F000043BD51A20D1FCB950F8042BCCFA52F4A1
:1009000051F8043BD51A17D1B4B950F8042BCCFADE
:1009100052F451F8043BD51A0ED16CB950F8042B9F
:10092000CCFA52F451F8043BD51A05D1002CDAD098
:1009300030BC4FF00000704729BAB1FA81F111F0D4
:100940001801D1F120008440F2D1CA40CB4012F00E
:10095000FF0213F0FF0330BCD01A70477047704796
:100960007047000000487047680A002470477047CD
:100970007047704738B504460A4600206946AFF311
:100980000080002808BF38BD02460099204600F0CC
:1009900001FA012038BD012000F0FFBAF8B5AFF32D
:1009A0000080054600200C46102000BF0646A8190E
:1009B000A0420DD9324669460020AFF300800700FF
:1009C00008BF00F0EAFA0098A04218BF0546C41913
:1009D000FFF7C8FF05600746F01D20F00700461925
:1009E000284600F00AF8B44208BFF8BDA21B314601
:1009F0003868BDE8F84000F0CDB900210160C0E9D9
:100A0000011070471020704710B500F0BFF9006862
:100A100010BD10B5044600F0B9F9046010BD000027
:100A20002DE9F041044616460D464769007B8007D4
:100A30002ED0384603F01CFC50BB3EB3012E02D032
:100A4000022E25D104E0204600F0BEF905441DE049
:100A5000384603F009FCE168002841F01001E1602C
:100A600005DA204600F058F80120BDE8F081C903FE
:100A70000BD56268E16A914200D81146A26911441F
:100A80002269891A814200DD08460544002D01DAF9
:100A90000220EAE7E16A6068E268814206D29103D7
:100AA000E06203D522F4003141F01002A66900276C
:100AB000AE4213DCE16A814201D90B4600E00346F5
:100AC00003EB060C2369ACEB030CAC4506DD81425D
:100AD00001D98C4600E084469C4505D1A76027607B
:100AE00042F02000A5620DE0AD1BE669AE1B81421D
:100AF000A66000D90846C01A281A206058196060FC
:100B000022F0200003490840E060002084F848708B
:100B1000ABE70000BFCFD7FFC16821F4001141F05F
:100B20008001C16000218160016070472DE9F047BC
:100B3000814614460E464FF0FF383248D568576953
:100B4000054209D03846A16903F0C6FB002811DB35
:100B50002C48C0430540E5602B463246494638469E
:100B600003F0BEFBA16920F00042B21A1144002834
:100B7000A16103D02046FFF7CFFF4046BDE8F087D4
:100B800070B504460569C06A6168884200D80846A5
:100B9000E16821F42011E160C90312D5A84208D010
:100BA0002246411B2846FFF7C1FF10B14FF0FF302E
:100BB00070BD0020E562C4E90150E06820F4803097
:100BC000E060002070BD10B50446C06820F0200031
:100BD000E060A16AA06988420DD02046FFF7D0FFEF
:100BE000E06820F4405040F01000E060A06AA0618E
:100BF0002069E062606044F24001E0688843E060A0
:100C000010BD00001000020010B542485421FFF74B
:100C10003EFE41485421FFF73AFE40485421FFF779
:100C200036FE3F493B483C4A3F4B08603D490A601D
:100C30003A491960531C0365481C1065012008657A
:100C40003B48344A39A1784400F002F920B93848C9
:100C500078440A3800F09AF937482F4A35A1784489
:100C600000F0F6F820B9344878440A3800F08EF9DC
:100C700032482A4A2FA1784400F0EAF820B92F48D8
:100C800078440A3800F082F940232248DC00002131
:100C9000224600F0BAF820B125487844543800F0D4
:100CA00075F91D4822464023002100F0AEF820B11E
:100CB00021487844543800F069F918482246102336
:100CC000002100F0A2F8002806D01C487844BDE8B6
:100CD0001040563800F05AB910BD104870B5006D7C
:100CE00020F001040B4800F02BF90B4800F028F924
:100CF0000A4800F025F909E0206D20F001052046A2
:100D000000F01EF92046FFF7BEFB2C46002CF3D165
:100D100070BD000080080024D408002428090024A5
:100D200000000024040000240800002472000000D9
:100D3000FA89000077000000E9890000C2890000FC
:100D40004FF000020429C0F0128010F0030C3FF4B1
:100D5000A0ADCCF1040CBCF1020F18BF00F8012BC0
:100D6000A8BF20F8022BA1EB0C01FFF792BD5FEAB0
:100D7000C17C24BF00F8012B00F8012B48BF00F80C
:100D8000012B704700487047600A002400487047F4
:100D9000600A0024034640688C46002818BF884239
:100DA0003CBF03464068F8D318681844884207D00F
:100DB0000CF1030020F00700001D411A521A0146F1
:100DC000081D0A60FFF75FBB10B50146C2689007B7
:100DD00003D0900607D5886A0AE0FFF7D7FF012104
:100DE0000160881E10BD8B69486818440B69C01AE1
:100DF00091F848301BB191F84910401A10BD110309
:100E0000FCD50028FADD401E10BD70B5C468A507EA
:100E100013D0650211D4B2F5807F09D0B2F5007FFE
:100E200006D0B2F5806F08D1012300F1240106E05D
:100E30005D1E6FF07F46B54201D3012070BD016198
:100E4000C361416024F470611143C160002070BD32
:100E50002DE9F0410C461646070047D0104600F039
:100E60006FF82078611C61280AD0722802D0772898
:100E70003CD102E00125002405E00225042402E023
:100E8000082448F2020511F8010B2B2806D062282D
:100E900009D011F8010C74280AD00BE045F00305C5
:100EA00044F00204EFE745F0040544F00104EAE7EA
:100EB00044F010043846214603F0E2F9411C15D0F5
:100EC0000021316171604FF40071F560F161706172
:100ED000200704D5304602220021FFF7A1FD306D26
:100EE00040F0010030653046BDE8F0810020FBE7AE
:100EF0002DE9F0410D460646104C206DC10704D087
:100F0000410804D020F00104F7E722460EE0542007
:100F1000FFF78AFA07000ED0206D47F00101084361
:100F2000542120653846FFF7B2FC3A462946304640
:100F3000BDE8F0418CE70020D6E7000080080024DF
:100F40002DE9F04704464FF000094FF0FF37C56820
:100F5000D4E90486A80707D02046FFF711FE3046E3
:100F600003F076F9002802DA3846BDE8F087280554
:100F700002D54046FFF787FA4C212046FFF787FC51
:100F8000206D20F0010020654846EEE710B500F026
:100F90003FF8BDE8104000F036B810B500F052F848
:100FA000BDE8104000F02FB870477546FFF7EAFE25
:100FB000AE4605006946534620F00700854618B046
:100FC00020B5FFF70BFABDE820404FF000064FF0C8
:100FD00000074FF000084FF0000BAC46ACE8C0092A
:100FE000ACE8C009ACE8C009ACE8C00921F00701D1
:100FF0008D46704710B50446AFF300802046BDE82B
:101000001040FFF7BCB9002801D000F043B870478A
:1010100010B5014602A000F043F8012010BD000009
:1010200053494752545245443A20526564697265A7
:1010300063743A2063616E2774206F70656E3A2086
:101040000000000010B5012805D0002103A000F029
:1010500027F8012010BD09A1F8E7000053494752C5
:10106000544D454D3A204F7574206F662068656178
:1010700070206D656D6F7279000000003A20486540
:101080006170206D656D6F727920636F727275701B
:101090007465640001491820ABBEFEE7260002001B
:1010A00070B505460C460A2000E06D1C00F011F8F2
:1010B00035B128780028F8D102E0641C00F009F866
:1010C00014B120780028F8D1BDE870400A20AFF3B1
:1010D000008008B569468DF800000320ABBE08BD4E
:1010E000FEE7000000000000704700000000000064
:1010F000EFF3108072B600BFFEE7000000000000B2
:10110000B0B50023C7F6FF73194205D04FF0010CAC
:101110004FF0010E07E000BF11F47F4F26D04FF0D3
:10112000010E4FF0000C01234FEAF204032C06D805
:10113000DFE804F01202080EBCF1000F0CD0012011
:10114000B0BD00BFBEF1000F06D00120B0BD00BF92
:1011500013B10120B0BD00BF00684161816821F07A
:101160001801114381600020B0BD00BF0B0607D4F9
:101170004B06CBD04FF0000C4FF0000E0023D3E70E
:1011800001234FF0000C4FF0000ECDE700000000EF
:1011900010B5C8B10446407F20B900202077204612
:1011A00000F036F802206077207978B1D4E9021295
:1011B0002046FFF7A5FF00281CBF012010BD607965
:1011C00088B1206911E000BF012010BD206841F600
:1011D000B751C0F2C1414161816821F018018160BD
:1011E00060790028EDD14FF0FF302168D4E9052364
:1011F0000861886820F0600010438860886820F0EB
:1012000080001843886001206077002010BD000036
:1012100081B044F2E0410068C5F6020101F5E462E4
:10122000904201D001B07047086840F40020086087
:10123000086800F400200090009801B0704700009A
:10124000B0B5044600F018F940F27C010546C2F240
:101250000041621C097818BF0C4400BF00F00CF973
:10126000401BA042FAD3B0BD2DE9F04F85B08E46A9
:1012700042F20042C5F602020A2102909042DEF8D4
:10128000005008BF0921002D009100F0DD80029878
:10129000002400F12642009802F1FF7201274FEA74
:1012A000B2230026092B4FF0000838BF1846CDF8AE
:1012B0000CE000900EE000BFDEF8005008F10108DD
:1012C00035FA07F006F1020607F1010704F10404FC
:1012D00000F0BA80A7F1010A012000FA0AF315EA2A
:1012E0000309E9D0DEF804B00BF003056A1E012AF9
:1012F00022D802984FEA4801D0F808C00191032192
:1013000001FA06F203992CEA020CD1F80CE00EFA6D
:1013100006F1DDF80CE041EA0C01816041686FEAFA
:10132000020CCBF3001299430346019802FA0AF229
:10133000114359600CE000BF0320032D00FA06F0B2
:10134000029B6FEA000C304602D13046032526E0AE
:10135000D968DEF8082001EA0C018240022D41EA3A
:101360000201D9601BD102466FF0030000EA5A0166
:101370000F20194404F01C0300FA03F51046D1F8BD
:1013800020E0039A2EEA0505DDF80CE012699A4088
:10139000029B2A430A62DEF804B00BF003051968C9
:1013A00005FA00F001EA0C011BF4403F40EA01009D
:1013B00018603FF481AF44F2F44140F20845C5F6AD
:1013C0000201C5F600050F23086840F0020008601E
:1013D000086800F0020004902AF00300049904F069
:1013E0000C0142598B409A43009B03FA01F11143CF
:1013F00041514FF0B0452868DEF8041040EA090278
:10140000CB0258BF20EA09028B022A6040F2040591
:10141000C5F60005286840EA090258BF20EA09021B
:101420008B032A60D5F8800040EA090258BF20EA01
:101430000902C903C5F88020E86F40EA090258BFD5
:1014400020EA0902EA6737E705B0BDE8F08F00003F
:1014500041F20000C5F6004000686FF31F3070478E
:101460000020C0F20B10704741F20000C5F60040AA
:101470000068000C7047000041F2EC30C2F20040FE
:10148000006870470000000040F27C0041F2EC313F
:10149000C2F20040C2F2004100780A6810440860BD
:1014A000704700000000000080B5032000F098F8AD
:1014B00001F05AFA44F2184149F21463C5F60201E8
:1014C000C0F600030A68096801F00F01C2F30322A5
:1014D000595C9A5C01F01F0102F01F02D04040F2FB
:1014E0008802C2F2004220FA01F1116040F2840148
:1014F000C2F2004108600F2000F00AF800281CBF6B
:10150000012080BD00F02CF8002080BD000000000C
:1015100070B540F27C06C2F200463178E1B1044673
:1015200040F28400C2F200404FF47A72B2FBF1F153
:101530000068B0FBF1F001F05FFD0F2C4FF00105EA
:1015400008D838B94FF0FF3000222146002500F0BE
:1015500017F87460284670BD012070BD00000000BF
:1015600081B044F2F440C5F60200016841F0020186
:101570000160006800F002000090009801B0704720
:10158000B0B54EF60C5C00F00F05CEF2000C043D39
:101590006544DCF800304FF0FF3CC3F3022E8EF0C0
:1015A0000703042B28BF0423BEF1030438BF002423
:1015B0000CFA03F3B0F1FF3F21EA030105F10C033C
:1015C00000F160450CFA04F0C8BF05F56443A14082
:1015D00022EA0000084300011870B0BD00000000BE
:1015E0004EF60C514FF6FF03CEF200010A681A4086
:1015F00060F30A2242F0806040F0FD70086070479E
:10160000B0B544F60C05C5F60205296849072968F6
:1016100006D401F00701081A18BF0120B0BD00BFB1
:1016200021F0070108432860FFF726FF044600BFAA
:1016300055F8080C800407D4FFF71EFF001BB0F517
:101640007A7FF5D90120B0BD0020B0BD00000000B8
:1016500080B501F001F944F2204149F21462C5F667
:101660000201C0F600020968C1F30211515C01F0E9
:101670001F01C84080BD000080B544F2384EC5F659
:10168000020E5EF8103C5EF8101CC1F3053C5EF8DB
:101690000C1CBCF1000FDEF8042023D0C1F30011B4
:1016A00003F00303C2F3CC02022B02FB01F100EEB4
:1016B000101AB8EE400A2BD0012B19D0C3B95EF82E
:1016C000381C89066ED4DEF800109FED492A6FF3AE
:1016D0005F2101EE101AB8EE411AA0EE021A9FED3A
:1016E000470A23E000218160C0E9001180BD00BFEE
:1016F000DEF800109FED3E2A6FF35F2101EE101A15
:10170000B8EE411AA0EE021A9FED3B0A0EE000BFB0
:10171000DEF800109FED362A6FF35F2101EE101AFC
:10172000B8EE411AA0EE021A9FED320AA1EE000AAD
:1017300001EE10CAB8EE411ADEF8001080EE010A80
:10174000B7EE002AC1F3462101EE101AB8EE411A95
:1017500031EE021A80EE011ABCEEC11A80ED001AB9
:10176000DEF80010C1F3064101EE101AB8EE411A7E
:1017700031EE021A80EE011ABCEEC11A80ED011A98
:10178000DEF80010C1F3066101EE101AB8EE411A3E
:1017900031EE021A80EE010ABCEEC00A10EE101AF9
:1017A000816080BDB7EE001A5EF8381CDEF80020BC
:1017B0009FED0F2A6FF35F22C1F3C101A0EE021A61
:1017C00000EE102A49F20002C0F2D03222FA01F1F2
:1017D000B8EE400A02EE101AB8EE422A31EE000AC4
:1017E00001EE10CAB8EE411A20EE020AA4E700BFCB
:1017F0000000003920BCBE4B0024744A0024744C05
:1018000080B544F2404EC5F6020E5EF8183C5EF814
:10181000181CC1F3055C5EF8141CBCF1000FDEF867
:10182000042023D0C1F3002103F00303C2F3CC0250
:10183000022B02FB01F100EE101AB8EE400A2BD089
:10184000012B19D0C3B95EF8401C89066ED4DEF8AE
:1018500000109FED492A6FF35F2101EE101AB8EED8
:10186000411AA0EE021A9FED470A23E00021816091
:10187000C0E9001180BD00BFDEF800109FED3E2AD8
:101880006FF35F2101EE101AB8EE411AA0EE021AB2
:101890009FED3B0A0EE000BFDEF800109FED362AF8
:1018A0006FF35F2101EE101AB8EE411AA0EE021A92
:1018B0009FED320AA1EE000A01EE10CAB8EE411AFD
:1018C000DEF8001080EE010AB7EE002AC1F34621CF
:1018D00001EE101AB8EE411A31EE021A80EE011A2A
:1018E000BCEEC11A80ED001ADEF80010C1F306410B
:1018F00001EE101AB8EE411A31EE021A80EE011A0A
:10190000BCEEC11A80ED011ADEF80010C1F30661C9
:1019100001EE101AB8EE411A31EE021A80EE010AF9
:10192000BCEEC00A10EE101A816080BDB7EE001A3E
:101930005EF8401CDEF800209FED0F2A6FF35F2257
:10194000C1F3C101A0EE021A00EE102A49F2000212
:10195000C0F2D03222FA01F1B8EE400A02EE101ABB
:10196000B8EE422A31EE000A01EE10CAB8EE411A72
:1019700020EE020AA4E700BF0000003920BCBE4BE5
:101980000024744A0024744C2DE9F0470446C078C2
:1019900044F22C480007C5F6020845D5606E4FEAB0
:1019A000305103290CD8DFE801F003112F3800BFB4
:1019B000D8F8001041F40031C8F800102DE000BF45
:1019C00001266078C0070AD032E000BF201D022146
:1019D00001F00AFE0646F8B16078C00728D1354606
:1019E0003746607880073BD43E466078400750D445
:1019F000B1466078000700F167804F46E0788007C5
:101A000040F15F817AE000BF04F12400022101F07F
:101A10007FFE06460028DFD1606ED8F8241021F43E
:101A200040110843C8F8240000266078C007D6D0CB
:101A3000606D042800F2A6803546DFE800F003ABB5
:101A4000B10A0A00D8F80000354640F40030C8F862
:101A50000000002D2F4600F0AD8060788007C3D5D0
:101A6000A06D4FEAB010042800F2B480DFE800F067
:101A700004BAC00A0A0000BFD8F8000040F40030E1
:101A8000C8F80000002D2E4600F0BC8060784007AA
:101A9000AED5D4F8A4004FEA7050042800F2C280FA
:101AA000DFE800F004C8CE0A0A0000BFD8F8000042
:101AB00040F40030C8F80000002DA94600F0CA80AC
:101AC000607800077FF599AFD4F8A8004FEA30603E
:101AD000042800F2CF80DFE800F003D5DB0909001D
:101AE000D8F8000040F40030C8F80000002D2F4660
:101AF00000F0D880E078800740F1E380A06C4FEAE6
:101B0000301003281AD8DFE800F003212B0300BFB0
:101B10002E466DB36078C00600F1D88037466078F5
:101B2000800600F1ED803E466078400600F1FC80C2
:101B300037466078000640F1BA8109E101250126A7
:101B40006078C00600F1C280E8E700BFD8F8000066
:101B500040F40030C8F80000002D2E46DAD107E02E
:101B6000201D022101F040FD0546002D2E46D1D159
:101B7000D8F82000A16C20F0300000250843C8F8F8
:101B800020009EE001250127607880073FF568AFBF
:101B90002AE700BF201D002101F026FD05E000BF5F
:101BA00004F12400002101F0B3FD0546002D2F466D
:101BB0007FF453AFD8F82400616D20F007000025B2
:101BC0000843C8F824003746607880077FF50CAFDB
:101BD00046E700BF01250126607840073FF559AF71
:101BE00006E700BF201D002101F0FEFC05E000BF5C
:101BF00004F12400002101F08BFD0546002D2E4646
:101C00007FF444AFD8F82400A16D20F4E0700025E3
:101C10000843C8F824003E46607840077FF5E8AEE8
:101C200037E700BF01254FF00109607800073FF555
:101C30004BAFE2E6201D002101F0D6FC05E000BF1D
:101C400004F12400002101F063FD0546002DA946A2
:101C50007FF436AFD8F82C00D4F8A41020F460003C
:101C600000250843C8F82C00B146607800077FF5CE
:101C7000C4AE29E701250127E07880073FF53EAF94
:101C80001FE000BF201D002101F0AEFC05E000BFF9
:101C900004F12400002101F03BFD0546002D2F46F4
:101CA0007FF428AFD8F82C00D4F8A81020F0E0601A
:101CB00000250843C8F82C004F46E07880073FF520
:101CC0001DAF3E466078C0067FF528AFE06D4FEA55
:101CD0003030042800F26C80DFE800F00472780AEB
:101CE0000A0000BFD8F8000040F40030C8F8000037
:101CF000002D2F4600F07480607880067FF513AFCA
:101D0000206E4FEA3040052800F27A80DFE800F0CC
:101D100004808A04040400BF002D2E4600F08C804D
:101D2000607840067FF504AFD4F8AC004FEA30701D
:101D3000052800F29180DFE800F00397A103030378
:101D4000002D2F4600F0A4806078000640F1AF809F
:101D5000E06E58B1B0F1005F10D0B0F1805F1FD1DC
:101D6000D8F8000040F40030C8F800002E466DB1ED
:101D7000E078C00700F0CF809DE000BF201D01216A
:101D800001F032FC0546002D2E46F1D1D8F8240092
:101D9000E16E20F0405000250843C8F8240086E09A
:101DA00001250126E078C00740F08580B3E000BF40
:101DB00001250127607880063FF5A2AFB3E600BF9A
:101DC000201D002101F010FC05E000BF04F12400FB
:101DD000002101F09DFC0546002D2F467FF48CAFBD
:101DE000D8F82400E16D20F4E04000250843C8F84D
:101DF00024003746607880067FF595AE80E700BF07
:101E000001250126607840063FF58EAF90E600BFC1
:101E1000201D012101F0E8FB0546002D2E467FF430
:101E20007FAF09E004F12400012101F071FC0546B7
:101E3000002D2E467FF474AFD8F82400216E20F4D4
:101E4000E02000250843C8F824003E46607840069C
:101E50007FF56EAE68E700BF0125012760780006B8
:101E60003FF576AF23E000BF201D012101F0BCFB50
:101E70000546002D2F467FF467AF09E004F12400EA
:101E8000012101F045FC0546002D2F467FF45CAF93
:101E9000D8F82C00D4F8AC1020F0E040002508431E
:101EA000C8F82C003746607800063FF551AF3E4633
:101EB000E078C0072FD0606C032809D8DFE800F075
:101EC00002101A02A946EDB1A07840062AD426E0F5
:101ED00001254FF00109A078400620D522E000BF7F
:101EE000D8F8000040F40030C8F80000002DA946E2
:101EF000EAD107E0201D022101F076FB0546002D06
:101F0000A946E1D1D8F82000616C20F0030000253B
:101F10000843C8F82000B146A078400602D44F46D6
:101F200019E000BFD8F8D40340F48070C8F8D40397
:101F3000FFF7A2FA064600BFD8F8D403C00507D4BD
:101F4000FFF79AFA801B6428F6D90325032702E0DD
:101F5000002D2F4664D02078C00700F0B680A06F17
:101F60004FEAF000052800F28D80DFE800F00391D1
:101F70009B030303002D2E4600F09E8020788007EF
:101F800000F1A88037462078400700F1B7803E4630
:101F90002078800600F1C88037462078400600F19E
:101FA000DB803E462078000600F1EE803746206850
:101FB000010740F10181D4F88000B0F5805F09D1BC
:101FC00004F12400022101F0A3FB002818BF01271F
:101FD000D4F88000D8F8281021F440510843C8F8FC
:101FE00028002068C10640F1EA80D4F89400B0F5DA
:101FF000807F09D104F12400022101F089FB00282F
:1020000018BF0127D4F89400D8F82C1021F440719F
:102010000843C8F82C002068000340F1F780D0E0A6
:10202000D8F84410D4F8B000414011F4407F11D0EA
:10203000D8F84410D8F8442042F48032C8F844203C
:10204000D8F8442021F4407122F48032C8F84420AA
:10205000C8F84410B0F5807F40F0AC82FFF70CFA6E
:10206000064641F2883A0325032700BFD8F844000A
:10207000800700F19D82FFF7FFF9801B5045F5D9DD
:1020800069E700BF012501262078800722D479E77F
:10209000201D012101F0A8FA0546002D2E467FF4EF
:1020A0006DAF09E004F12400012101F031FB054688
:1020B000002D2E467FF462AFD8F82800A16F20F0E3
:1020C000380000250843C8F828003E4620788007DD
:1020D0007FF558AF606F052800F28E81DFE810F0C1
:1020E000060094019E01060006000600002D2F4602
:1020F00000F09E81207840077FF549AFD4F890002A
:10210000052800F2A581DFE810F00700AB01B5015A
:1021100007000700070000BF002D2E4600F0B48125
:10212000207880067FF538AFD4F88C004FEA307005
:10213000052800F2B981DFE810F00700BF01C901EE
:1021400007000700070000BF002D2F4600F0C881E0
:10215000207840067FF525AFD4F898004FEAB020EC
:10216000052800F2CD81DFE810F00700D301DD0182
:1021700007000700070000BF002D2E4600F0DC819D
:10218000207800067FF512AFD4F89C004FEA70303B
:10219000052800F2E181DFE810F00700E701F10116
:1021A00007000700070000BF002D2F4600F0F08158
:1021B000206801073FF5FFAEC1063FF516AF0003EB
:1021C00024D5D4F8A000B0F5003F0FD0B0F5803F83
:1021D00006D0B8BB201D002101F006FA05E000BFC3
:1021E00004F12400022101F093FA05462E461DB1A8
:1021F000A07840073FD50DE0D8F82C00D4F8A01007
:1022000020F4403000250843C8F82C003E46A07852
:10221000400730D5D4F88400B0F5401F0BD0B0F59E
:10222000001F15D0B0F5801F70D1D8F8000040F421
:102230000030C8F800002F469DB1A078C0071ED11D
:1022400069E000BF01260125A0784007E2D412E032
:1022500004F12400012101F05BFA0546002D2F4610
:10226000EBD1D8F82800D4F8841020F440100025D1
:102270000843C8F828003746A078C0074BD0E06C68
:10228000B0F5803F2AD0D8BBD8F8000040F4003029
:10229000C8F800002E464DB3206881003FD481036A
:1022A00048D4C1025DD4C10065D481026FD441001D
:1022B00078D4B0F1FF3F40F38680000208D5D8F80B
:1022C0002800D4F8881020F440000843C8F82800FB
:1022D000002E18BF01263046BDE8F087201D0221E0
:1022E00001F082F90546002D2E46D5D1D8F8200000
:1022F000E16C20F4803000250843C8F820000AE093
:102300000126012520688100C9D508E001270125A3
:10231000A078C007B3D13E4620688100BFD504F144
:102320002400022101F0F4F9002818BF01262068DA
:102330008103B6D5E16F6FF0010202EB3122022A70
:102340000AD34FEA31223AB1012A07D1D8F8002046
:1023500042F40032C8F80020002D41D00126C1020D
:10236000A1D5D8F82410226F21F000411143C8F8FC
:102370002410C10099D558F81C1CD4F8B42021F4BD
:102380008041114348F81C1C81027FF590AFD8F8BA
:102390002410A26E21F080711143C8F8241041006E
:1023A0007FF587AF58F81C1C21F4004148F81C1C2D
:1023B000D4F8B81058F81C2C114348F81C1CB0F184
:1023C000FF3F3FF77AAFD8F82010226D21F040513F
:1023D0001143C8F8201000027FF57AAF6FE700BF05
:1023E000D8F8282022F440721143C8F82810C102FE
:1023F0007FF559AFB5E700BF0125012720784007D9
:102400003FF57CAEC3E500BF201D012101F0ECF8D3
:102410000546002D2F467FF46DAE09E004F124003F
:10242000012101F075F90546002D2F467FF462AEBB
:10243000D8F82800616F20F0070000250843C8F88D
:1024400028003746207840077FF5A1AD56E600BF4B
:1024500001260125207880063FF566AE9CE500BF89
:10246000201D012101F0C0F80546002D2E467FF405
:1024700057AE09E004F12400012101F049F90546B5
:10248000002D2E467FF44CAED8F82C00D4F89010D6
:1024900020F0070000250843C8F82C003E462078AD
:1024A00080067FF579AD3FE60127012520784006BB
:1024B0003FF552AE75E500BF201D002101F094F8F4
:1024C0000546002D2F467FF443AE09E004F12400B9
:1024D000022101F01DF90546002D2F467FF438AE8C
:1024E000D8F82800D4F88C1020F0E04000250843EC
:1024F000C8F828003746207840067FF552AD2BE615
:1025000001260125207800063FF53EAE4EE500BFCE
:10251000201D002101F068F80546002D2E467FF4AD
:102520002FAE09E004F12400022101F0F1F8054684
:10253000002D2E467FF424AED8F82C00D4F8981045
:1025400020F4E05000250843C8F82C003E462078CF
:1025500000067FF52BAD17E601270125206801074E
:102560007FF52AAE27E500BF201D002101F03CF8D1
:102570000546002D2F467FF41BAE09E004F1240030
:10258000022101F0C5F80546002D2F467FF410AE5C
:10259000D8F82C00D4F89C1020F4604000250843A3
:1025A000C8F82C003746206801077FF505AE02E524
:1025B000D4F8B0004FF6CF7358F81C2CC0F2FF03CC
:1025C00000F4407122F47C5203EA10136FF31F30C1
:1025D000B1F5407F08BF1A43002548F81C2CD8F8F5
:1025E00044100843C8F84400FFF799BC00000000FD
:1025F0002DE9F04381B0002800F02A8142F2000862
:102600000446C5F200288946D8F8000000F00F0003
:1026100088420ED2D8F8000020F00F0040EA0900EE
:10262000C8F80000D8F8000000F00F00484540F05E
:102630000F81206844F218474107C5F602070AD502
:1026400021693A6802F07002914204D93A6822F096
:1026500070021143396001070AD561697A6802F096
:102660007002914204D97A6822F0700211437960B5
:10267000C1060AD5A1697A6802F4E062914204D9E0
:102680007A6822F4E0621143796081060AD5E16933
:10269000BA6802F07002914204D9BA6822F070025E
:1026A0001143B96010F002010AD0E2683B6803F000
:1026B0000F039A4204D93B6823F00F031A433A6090
:1026C000C20746D0386820F47061D4E901020128BD
:1026D00041EA0201396009D003280DD0022811D146
:1026E00057F8181C890340F1B38010E057F8181C04
:1026F000C90540F1AD800AE057F8181C890140F186
:10270000A78004E057F8181C490740F1A18057F84A
:10271000081C21F00701084347F8080CFEF7ACFE3F
:10272000064641F2883500BF57F8080C616800F092
:102730003800B0EBC10F09D0FEF79EFE801BA84207
:10274000F2D9032001B0BDE8F08300BF206800F09B
:10275000020151B1E1683A6802F00F02914204D2DD
:102760003A6822F00F0211433960D8F8001001F0E6
:102770000F0149450DD9D8F8001021F00F0141EAA9
:102780000901C8F80010D8F8001001F00F01494500
:102790005ED141070AD521693A6802F07002914280
:1027A00004D23A6822F070021143396001070AD559
:1027B00061697A6802F07002914204D27A6822F06C
:1027C000700211437960C1060AD5A1697A6802F4E2
:1027D000E062914204D27A6822F4E06211437960A7
:1027E00080060AD5E069B96801F07001884204D218
:1027F000B96821F070010843B86000F0B5F8396895
:1028000049F214633A68C0F60003C1F3032102F0F1
:102810000F02595C9A5C01F01F0120FA01F102F0ED
:102820001F0040F2880221FA00F0C2F2004210605C
:1028300040F2800040F28402C2F20040C2F2004244
:102840000068116001B0BDE8F043FEF761BE00BF53
:10285000012001B0BDE8F08380B500F085F844F2B6
:10286000184149F21463C5F60201C0F600030A6874
:10287000096801F00F01C2F30322595C9A5C02F06F
:102880001F0220FA02F201F01F0040F2880122FA32
:1028900000F0C2F20041086040F28401C2F200413F
:1028A0000A6080BD0000000080B500F05DF844F2D1
:1028B000184C49F21461C5F6020CC0F60001DCF8B0
:1028C0000020DCF8003003F00F03C2F30322CB5CDE
:1028D0008A5C02F01F02D04003F01F0240F288031E
:1028E00020FA02F2C2F200431A6040F28403C2F2FC
:1028F00000431860DCF80400C0F30210085C00F02C
:102900001F0022FA00F080BD80B500F02DF844F2DF
:10291000184C49F21461C5F6020CC0F60001DCF84F
:102920000020DCF8003003F00F03C2F30322CB5C7D
:102930008A5C02F01F02D04003F01F0240F28803BD
:1029400020FA02F2C2F200431A6040F28403C2F29B
:1029500000431860DCF80400C0F30220085C00F0BB
:102960001F0022FA00F080BD44F23041C5F602019A
:1029700051F8200CC0F3C200032813D002283FD026
:10298000002843D151F8300C800649F20000C0F213
:10299000D03058BF704751F8301CC1F3C101C84056
:1029A000704700BF51F8082C51F8080CC0F3051C03
:1029B00051F8040CBCF1000F4B682DD0C3F3CC03CD
:1029C00000F00100584302F00302022A00EE100A50
:1029D000B8EE400A30D0012A20D0FAB951F8300CB4
:1029E00080064DD408689FED382A6FF35F2001EE12
:1029F000100AB8EE411AA0EE021A9FED360A28E03E
:102A000047F64000C0F27D10704700BF40F600104E
:102A1000C0F23D00704700BF0020704708689FED7E
:102A20002A2A6FF35F2001EE100AB8EE411AA0EED9
:102A3000021A9FED270A0CE008689FED232A6FF326
:102A40005F2001EE100AB8EE411AA0EE021A9FEDC7
:102A50001F0AA1EE000A01EE10CAB8EE411A08687A
:102A600080EE010AC0F34620013001EE100AB8EEF4
:102A7000411A80EE010ABCEEC00A10EE100A70473F
:102A8000B7EE001A51F8300C0A689FED0F2A6FF369
:102A90005F22C0F3C100A0EE021A00EE102A49F234
:102AA0000002C0F2D03222FA00F0B8EE400A02EE84
:102AB000100AB8EE422A31EE000A01EE10CAB8EE52
:102AC000411A20EE020ACAE70000003920BCBE4BC2
:102AD0000024744A0024744CF0B581B0002800F042
:102AE0005B810446007844F20046C007C5F6020642
:102AF00012D0306900F03801B06A102905D01829C9
:102B00002ED100F0030002282AD13068800303D5BB
:102B10006068002800F040812078800740F1A9809B
:102B2000306910F03801B06A2CD0182908BF5FEA6C
:102B3000807027D0E068316800284FD021F019015B
:102B400008433060FEF798FC054600BF3068400738
:102B500034D4FEF791FC401B0228F7D95BE100BF9B
:102B6000606800284CD0B0F5A02F61D0B0F5803F50
:102B700062D0306820F480303060306820F48020EB
:102B80005DE000BF30684007E06802D5002800F033
:102B90000381316821F0190108433060FEF76CFCB5
:102BA000054600BF3068400708D4FEF765FC401BAF
:102BB00002284FF00300F5D919E200BFFEF754FCDC
:102BC00041F20301884249D820697168402821F404
:102BD0007C314BD141F400304AE000BF21F00100CC
:102BE0003060FEF749FC05463068400741D5FEF7E6
:102BF00043FC401B02284FF00300F5D9F7E100BF6A
:102C0000306820F480303060306820F480203060FC
:102C1000FEF732FC054600BF306880037FF57CAFCD
:102C2000FEF72AFC401B64284FF00300F4D9DEE1D4
:102C3000306840F480203060306840F4803030608C
:102C4000FEF71AFC054600BF306880033FF564AF0D
:102C5000FEF712FC401B6428F6D9DCE0706821699D
:102C600020F0FE4040EA016002E000BF41EA00308F
:102C700070602078C00654D5306900F03801B06A21
:102C8000082905D0182919D100F00300012815D111
:102C90003068C00503D5E069802840F07D80FEF7EC
:102CA000E3FB41F2030188421ED8206A71682028A4
:102CB00021F0F84132D141F0804031E0E069002854
:102CC000306819D040F080003060FEF7D5FB054633
:102CD0003068C005E3D4FEF7CFFB401B02284FF05D
:102CE0000300F5D983E100BFF068216A20F07C5031
:102CF00040EA0160F06014E020F080003060FEF7F0
:102D0000BBFB05463068C0050BD5FEF7B5FB401B85
:102D100002284FF00300F5D969E100BF41EA806065
:102D20007060207800073BD4207880064CD420784F
:102D300040075DD4656A65B3306900F03800182833
:102D400040F0A080012DB16A306B25D001F0030264
:102D5000A36A9A4220D1C1F30511E26A91421BD1C4
:102D60000146226B6FF35F21013A914214D1C0F307
:102D70004622616B01398A420ED1C0F30642A16B33
:102D800001398A4208D1C0F30660E16B01398842FB
:102D900002D1002001B0F0BD012001B0F0BD00BFA4
:102DA00060690028706F39D040F001007067FEF74D
:102DB00063FB0546706F8007B6D4FEF75DFB401BD2
:102DC0000228F7D927E000BFA0690028306847D063
:102DD00040F480503060FEF74FFB054630688004B9
:102DE000A5D4FEF749FB401B0228F7D913E000BF2A
:102DF000D6F8000440F48070C6F80004FEF73CFBEF
:102E0000054600BFD6F80004C00519D4FEF734FB10
:102E1000401B6428F6D9032001B0F0BD20F001006A
:102E20007067FEF729FB0546706F80077FF57CAF62
:102E3000FEF722FB401B02284FF00300F4D9D6E036
:102E4000A068002840D0052858D001285AD0306FFB
:102E500020F001003067306F20F0040055E000BF23
:102E600020F480503060FEF707FB05463068800490
:102E70007FF55DAFFEF700FB401B02284FF003001B
:102E8000F4D9B4E0306820F080703060FEF7F4FAD6
:102E9000022D05460CD100BF3068800148D5FEF7F1
:102EA000EBFA401B02284FF00300F5D99FE000BF6A
:102EB000306880017FF56DAFFEF7DEFA401B022817
:102EC0004FF00300F4D992E0306F20F0010030673A
:102ED000306F20F004003067FEF7CEFA054641F26D
:102EE0008837306F80077FF525AFFEF7C5FA401BA6
:102EF000B8424FF00300F4D979E000BF306F40F0E2
:102F000004003067306F40F001003067FEF7B4FA1C
:102F1000054641F2883700BF306F80073FF50AAFA2
:102F2000FEF7AAFA401BB8424FF00300F4D95EE066
:102F300004F12807B06A40F2F33188438ECF08438A
:102F4000591E40EA02104FF47E426FF35F21B062D7
:102F500002EB47204FF4FE0280B2E36B0844A16B02
:102F600002EB01414FF0FE4201F4FE0102EB03626D
:102F7000084402F0FE4108443063F06A4FF6F871ED
:102F800020F00100F062706BA26C884340EAC2003E
:102F90007063F06A216C20F00C000843F062F06A64
:102FA000616C20F002000843F062F06A40F4803067
:102FB000F062F06A40F40030F062F06A40F4802081
:102FC000F062F06A40F00100F062306840F080701A
:102FD0003060FEF751FA0446306880013FF5D9AE03
:102FE000FEF74AFA001B02284FF00300F4D901B0A3
:102FF000F0BD000000000000411E0020B0EB116F8A
:1030000002D00120704700BF4EF21002F023CEF232
:10301000000251604EF62351CEF200010B700721E1
:10302000906011607047000090F88010012901D174
:10303000022070472421C0F88410026813681168C8
:1030400023F0005321F0010111600021416613605B
:103050002022C0F8842080F88010084670470000C5
:1030600070B590F88020012A02D1022070BD00BF07
:103070002422C0F884200268D0F864E0BEF1000F7A
:10308000D2F800C0136823F001031360936823F0A3
:10309000606341EA030191601AD0916849F2646E5D
:1030A0009368C0F6000E5B0F49F26C65C1F342668F
:1030B000C0F600051EF80340E95C2301B3FBF1F103
:1030C0001EF80630AE5D1B01B3FBF6F302E000BF55
:1030D00001210123A0F86A102021A0F86830C2F86D
:1030E00000C0C0F88410002180F88010084670BD30
:1030F00070B590F88020012A02D1022070BD00BF77
:103100002422C0F884200268D0F864E0BEF1000FE9
:10311000D2F800C0136823F001031360936823F012
:10312000604341EA030191601AD0916849F2646EEC
:103130009368C0F6000E5B0F49F26C65C1F34266FE
:10314000C0F600051EF80340E95C2301B3FBF1F172
:103150001EF80630AE5D1B01B3FBF6F302E000BFC4
:1031600001210123A0F86A102021A0F86830C2F8DC
:1031700000C0C0F88410002180F88010084670BD9F
:10318000B0B582B0B0B10446D0F8840028B90020B0
:1031900084F88000204600F057F82420C4F884000A
:1031A0002068016821F001010160204600F0C4FCA4
:1031B000012803D1012002B0B0BD00BFA06A10B148
:1031C000204600F049FC2068416821F490414160AC
:1031D000816821F02A018160016841F001010160EC
:1031E0000020C4F88C00FEF747F9216805460A68FC
:1031F00012070BD54FF4001100226FF07E400090B3
:1032000020462B4600F0F4FE70B92168086840079C
:103210000ED54FF4800100226FF07E4000902046D2
:103220002B4600F0E5FE18B1032002B0B0BD00BF90
:103230002020C4F88400C4F888000020E06684F8E8
:10324000800002B0B0BD000010B5B4B069460446BD
:10325000081DB821FDF71BFB41F200012068C4F2F4
:103260000101884202D034B010BD00BF012000909F
:103270006846FEF789FB08B1FDF73AFF44F2E040EB
:10328000C5F60200016941F010010161016901F018
:1032900010012F912F99016841F001010160006830
:1032A0002FA900F001002F902F984FF4C0602F90AD
:1032B000022030900020CDE931000720339000201B
:1032C000C5F60200FDF7D0FF34B010BD00000000CD
:1032D0002DE9F04381B00446D0F8880020280BD1B6
:1032E0000E4600294FF001006AD01746002A67D029
:1032F00094F88000012803D1022001B0BDE8F083DA
:103300001D46012084F880000020C4F88C00222192
:10331000C4F88810E066FEF7AFF8A4F85C70804649
:10332000A4F85E70A168B9B1B1F1805F18D0B1F5B1
:10333000805F19D12069FF270146002818BF314658
:1033400008BF40F2FF17002818BF0026A4F86070DD
:10335000B1460E460FE000BF206938B9FF2706E0EE
:10336000206918B13F2702E0002700E07F274FF0D7
:103370000009A4F86070002084F8800009E000BF14
:10338000384029F8020B0026B4F85E000138A4F892
:103390005E00B4F85E0078B120210022204643464A
:1033A000009500F025FE78B92068002E406AE7D02D
:1033B000384006F8010BE7E72020C4F88800002019
:1033C00001B0BDE8F08300BF032001B0BDE8F08389
:1033D0002DE9F04381B00446D0F8840020280BD1B9
:1033E0000E4600294FF001005CD01746002A59D044
:1033F00094F88000012803D1022001B0BDE8F083D9
:103400001D46012084F880004FF00009C4F88C901C
:103410002120C4F88400FEF72FF8A4F85470A4F813
:1034200056700746A168B1F5805F07D12069002872
:103430001CBF30464E46B046064601E04FF000083D
:1034400084F8809009E000BF206816F8011B8162B3
:10345000B4F856000138A4F85600B4F8560088B104
:103460008021002220463B46009500F0C1FD88B92E
:10347000002EE9D138F8020B216800266FF35F2097
:103480008862E5E74021002220463B46009500F097
:10349000AFFD18B1032001B0BDE8F0832020C4F8CF
:1034A0008400002001B0BDE8F083000000000000AF
:1034B000FEE700000000000080B540F6F83044F65A
:1034C0000041C2F20040C5F6020101600021818086
:1034D000C0E9051101210162FDF75AFE002808BF6D
:1034E00080BDBDE88040FDF703BE00000000000085
:1034F00082B044F2E040C5F60200016841F080016C
:103500000160016801F0800101910199016841F0B9
:1035100001010160006800F001000090009802B015
:10352000704700000000000080B540F61C4041F2EA
:103530000001C2F20040C4F201010C2201604FF40C
:10354000E13141600021C0E902110161C0E90521BA
:10355000C0E90711C0E90911FFF712FE08B1FDF734
:10356000C7FD40F61C400021C2F20040FFF7C0FD3D
:1035700008B1FDF7BDFD40F61C400021C2F200403D
:10358000FFF76EFD08B1FDF7B3FD40F61C40C2F237
:103590000040FFF749FD002808BF80BDBDE880401E
:1035A000FDF7A6BD0000000080B5FFF7BDFFBDE838
:1035B000804001F085BC000080B501F0B9FD4FF4FA
:1035C0007A70BDE88040FDF73BBE000000000000BF
:1035D000FEE7000000000000FEE700000000000021
:1035E0007047000000000000F0B581B044F22C47A5
:1035F000C5F6020757F8042C02F00302032A03D190
:10360000012001B0F0BD00BF054657F82C0C0C4658
:1036100020F0806047F82C0CFDF72EFF064600BF17
:1036200057F82C0C000105D5FDF726FF801B02285A
:10363000F6D964E057F8040CEE6895E80E0020F423
:103640007C30012C40EA0130A2F101016FF35F21CF
:103650004FF47E4202EB432247F8040C92B24FF043
:10366000FE4302EB01004FF4FE012A6901EB064123
:1036700001F4FE0103EB0262084402F0FE4108443B
:10368000F8603868696920F0C00040EA01003860DD
:103690003868A96920F0200040EA010038603868E5
:1036A0004FF6F87120F0100038603869EA6920EAB6
:1036B00001004FF4001140EAC2003861386808BFC9
:1036C0004FF4801140F01000002C386008BF4FF418
:1036D000002138680843386057F82C0C40F08060AF
:1036E00047F82C0CFDF7C8FE044600BF57F82C0C19
:1036F000000107D4FDF7C0FE001B0328F6D303200A
:1037000001B0F0BD002001B0F0BD000000000000DD
:10371000F0B581B044F22C47C5F6020757F8042CE7
:1037200002F00302032A03D1012001B0F0BD00BF63
:10373000054657F82C0C0C4620F0805047F82C0C0E
:10374000FDF79AFE064600BF57F82C0C800005D501
:10375000FDF792FE801B0228F6D964E057F8040CAE
:10376000EE6895E80E0020F07C70012C40EA0150D4
:10377000A2F101016FF35F214FF47E4202EB43227D
:1037800047F8040C92B24FF0FE4302EB01004FF4F5
:10379000FE012A6901EB064101F4FE0103EB02621E
:1037A000084402F0FE41084478613868696920F4F1
:1037B000406040EA010038603868A96920F4007070
:1037C00040EA0100386038684FF6F87120F48070E4
:1037D0003860B869EA6920EA01004FF0807140EA78
:1037E000C200B861386808BF4FF4000140F480702F
:1037F000002C386008BF4FF48001386808433860F7
:1038000057F82C0C40F0805047F82C0CFDF734FE94
:10381000044600BF57F82C0C800007D4FDF72CFE9F
:10382000001B0328F6D3032001B0F0BD002001B037
:10383000F0BD000000000000704700000000000024
:10384000FDF722BE0000000070B59CB044F61804DD
:1038500040F22C4509A84C21C5F60204C5F6000526
:10386000FDF715F802200026CDE90766CDE90566CB
:10387000CDE90366CDE90166FDF7C2FE0096286832
:1038800020F001002860286800F001000090206806
:1038900040F440402060206800F4404000900098D0
:1038A0002068800409D4206880045CBF20685FEA37
:1038B000804002D420688004F2D54FF6DC40CFF679
:1038C000FF70215841F002012150205800F0020001
:1038D0000090009800200090206840F44040206054
:1038E000206800F440400090286840F00100286003
:1038F000286800F00100009000982068800409D436
:10390000206880045CBF20685FEA804002D42068A1
:103910008004F2D5012009904FF480300A900220F3
:103920000521CDE912001491A021CDE91510142133
:103930000824CDE9171009A819940025CDE91A55D6
:10394000FFF7CAF820B1EFF3108072B6FEE700BFB0
:103950003F20019003204FF48061CDE90205402013
:103960000494CDE90500CDE9071001A80221FEF776
:103970003FFE28B1EFF3108072B600BFFEE700BF34
:103980001CB070BD000000004EF6885042F2000CE2
:10399000CEF20000C5F2002C016841F47001016014
:1039A000DCF8000000F00F00062806D8DCF8000064
:1039B000072161F30300CCF8000044F200404EF60A
:1039C0007F52C5F60200CEF6F622016841F00101F1
:1039D00001600021016103681A400260DCF80020E8
:1039E000120706D5DCF80020072363F30302CCF8A6
:1039F000002040F200228161C161C0F20222016216
:103A000082620022C0F2FF12C26240F28022C0F243
:103A10000112026341638263C1630264416402680C
:103A200022F480220260016641F20000C5F60040E7
:103A30000068B1EB507F05D148F208100121C5F2B2
:103A40000010016044F2000043F2D201C5F20020F0
:103A50000160704700000000816ACA070CD18A0724
:103A600015D44A071ED40A0727D4CA0630D48A06BA
:103A700039D44A0655D541E00268D0F82CC05368C5
:103A800023F4003343EA0C0353608A07E9D5026844
:103A9000D0F830C0536823F4803343EA0C035360FA
:103AA0004A07E0D50268D0F834C0536823F4802375
:103AB00043EA0C0353600A07D7D50268D0F838C030
:103AC000536823F4004343EA0C035360CA06CED57F
:103AD0000268D0F83CC0936823F4805343EA0C0397
:103AE00093608A06C5D50268D0F840C0936823F475
:103AF000005343EA0C0393604A0612D50268D0F8DB
:103B000044C0BCF5801F536823F4801343EA0C03C0
:103B1000536006D1536823F4C00C836C43EA0C0352
:103B20005360090658BF70470168C06C4A6822F4A8
:103B3000002210434860704770B584B004460068A6
:103B400004F1080340F6004EE669C5F6000E0ECB00
:103B5000194363690B4346F6F3110568CCF6FF7110
:103B6000334329401943016041684FF2FF4321F478
:103B70004051704541EA02014160A269C1F2FF1360
:103B80001CBF216A0A43816844F2544C1940C5F6AF
:103B9000020C1143816047F2FF72C16AC4F2000255
:103BA00021F00F01656A90424FF0800341EA050160
:103BB000C16221DD40F6FF71C4F2010188422FDDB0
:103BC000704500F0FB8041F20041C4F201018842DF
:103BD00005D041F20001C4F20101884247D1DCF86E
:103BE0000010C1F3C202062A80F0F08049F2086199
:103BF000C0F6000139E000BF44F6FF31C4F2000115
:103C000088421BDC44F20041C4F20001884221D00A
:103C100044F60001C4F2000188421BD027E000BF37
:103C200047F60001C4F20001884213D047F6004174
:103C3000C4F2000188420DD019E000BF44F60041F3
:103C4000C4F20001884205D045F20001C4F200012F
:103C500088420CD1DCF8001001F00702062A80F03F
:103C6000B58049F20E61C0F600018B181B787045D3
:103C700040F60010C0F23D0000F0B080B6F5004FF5
:103C800040F04E80402B4FF0010100F2A281DFE8AE
:103C900013F041001D01A001A0012301A001A0011A
:103CA000A0012B01A001A001A001A001A001A00181
:103CB000A0013301A001A001A001A001A001A00169
:103CC000A001A001A001A001A001A001A001A001EC
:103CD000A0014301A001A001A001A001A001A00139
:103CE000A001A001A001A001A001A001A001A001CC
:103CF000A001A001A001A001A001A001A001A001BC
:103D0000A001A001A001A001A001A001A001A001AB
:103D1000A0014101FEF7C8FD002840F0DA80E9E08B
:103D2000402B4FF0010100F25481DFE813F0410015
:103D30001301520152011901520152015201210194
:103D40005201520152015201520152015201290104
:103D500052015201520152015201520152015201CB
:103D600052015201520152015201520152013901D4
:103D700052015201520152015201520152015201AB
:103D8000520152015201520152015201520152019B
:103D9000520152015201520152015201520152018B
:103DA0005201520152015201520152015201370196
:103DB000FEF77AFD002840F0D080DFE0DCF8041048
:103DC00001F00702062A01D286A14EE78023704542
:103DD00040F60010C0F23D007FF450AF9A1E012162
:103DE0001E2A27D8DFE812F02000F5002C00F5008D
:103DF000F500F5003400F500F500F500F500F500DC
:103E0000F500F5003C00F500F500F500F500F500C3
:103E1000F500F500F500F500F500F500F500F500FA
:103E2000F500F500490000BFFDF712FCB0B1656A6E
:103E300023E000BF402B40F0CC804FF400401CE05A
:103E400001A8FDF719FC02980028F0D106E000BF98
:103E500001A8FDF7D5FC02980028E8D10021B8E0C0
:103E60005CF8540C800649F20000C0F2D03004D552
:103E70005CF8541CC1F3C101C84049F22461626876
:103E8000C0F6000131F81510B0FBF1F002EB420171
:103E900088424FF00101C0F09C801303984200F269
:103EA0009880010E0023000210EB520041F1000146
:103EB000FCF710FB4FF60052A0F54071C0F20F0264
:103EC0009142C0F08080012183E000BFFEF71CFD1D
:103ED00080B1656A20E000BF01A8FDF7CDFB029824
:103EE0000028F6D106E000BF01A8FDF789FC029882
:103EF0000028EED100216CE05CF8540C800649F2F9
:103F00000000C0F2D03007D55CF8541CC1F3C101E9
:103F1000C84001E04FF4004049F22461C0F60001BE
:103F200031F81510B0FBF1F061684A0802EB40006F
:103F30004FF6EF72B0FBF1F0A0F11001914207D8FB
:103F40004FF6F0710140C0F3420008443BE000BF6F
:103F500001213EE0FEF7D8FC80B1656A20E000BF99
:103F600001A8FDF789FB02980028F6D106E000BF02
:103F700001A8FDF745FC02980028EED1002128E0B9
:103F80005CF8540C800649F20000C0F2D03007D52E
:103F90005CF8541CC1F3C101C84001E04FF400407B
:103FA00049F224616268C0F6000131F81510B0FBD7
:103FB000F1F000EB5200B0FBF2F0A0F110014FF66F
:103FC000EF72914204D82168C860002101E000BF6F
:103FD00001214FF00110A0660020C4E91C00084632
:103FE00004B070BD02040810204000000000000072
:103FF0002DE9F041044600680D46C7693940491B68
:10400000B1FA81F14909914240F0A780DDF81880AA
:10401000B8F1000F2AD0164618F1010140F0868051
:10402000C1692940491BB1FA81F14909B14240F007
:104030009480C1692940491BB1FA81F14909B14213
:1040400001BFC1692940491BB1FA81F104BF490987
:10405000B14240F08280C1692940491BB1FA81F127
:104060004909B142DCD00020BDE8F081FDF704FA37
:10407000206850E8000F216820F4D07041E8000269
:10408000F2B1206850E8000F216820F4D07041E8B8
:104090000002002A1FBF206850E8000F216820F4AA
:1040A000D0701CBF41E80002002A09D0206850E807
:1040B000000F216820F4D07041E80002002AD7D117
:1040C000206850E8020F216820F0010041E8020258
:1040D000F2B1206850E8020F216820F0010041E8A9
:1040E0000202002A1FBF206850E8020F216820F05A
:1040F00001001CBF41E80202002A09D0206850E8F4
:10410000020F216820F0010041E80202002AD7D105
:104110002020C4F8840004F18800202101600020E0
:1041200084F880000320BDE8F08100BF1F4600BF77
:10413000FDF7A2F9C01B40459AD8206801684907DD
:1041400044BFC1695FEA01510AD4C0692840401BDD
:10415000B0FA80F04009B042EAD00020BDE8F0811A
:104160004FF40061016200E0206850E8000F216810
:1041700020F4D07041E80002EAB1206850E8000F56
:10418000216820F4D07041E80002A2B1206850E814
:10419000000F216820F4D07041E80002002A1FBF00
:1041A000206850E8000F216820F4D0701CBF41E85F
:1041B0000002002AD8D1206850E8020F216820F0C0
:1041C000010041E80202F2B1206850E8020F2168C4
:1041D00020F0010041E80202002A1FBF206850E8D9
:1041E000020F216820F001001CBF41E80202002AF2
:1041F00009D0206850E8020F216820F0010041E852
:104200000202002AD7D12020C4F88400C4F8880014
:1042100004F18C0081E70000FEE7000000000000D0
:1042200080B582B040F6A0308DF80710C2F2004091
:10423000007850B940F61C400DF10701C2F2004071
:1042400001224FF0FF33FFF7C3F802B080BD00003A
:1042500048F20401411A002011F1030F38BF4FF05A
:10426000FF30704700000000002070470000000091
:1042700048F20101411A0020032938BF012070478C
:1042800010B5044600783A2817D149F24461204617
:10429000C0F60001FCF724FB90B149F24B612046C7
:1042A000C0F60001FCF71CFB70B149F23C612046EE
:1042B000C0F60001FCF714FB50B14FF0FF3010BD09
:1042C00048F2010010BD00BF48F2020010BD00BF5F
:1042D00048F2030010BD00004FF0FF3070470000AF
:1042E000400844F20101401A18BF4FF0FF307047F8
:1042F0002DE9F04F93B00C4600294FF00001D2F8A1
:10430000089048BF0121924609F0040201EA920B8D
:104310000646BBF1010F4FF0000802928DF84B806A
:104320000AD17642DAF8000068EB04074FF02D0856
:104330000138CAF8000000E027465FEA09704FF034
:10434000370058BF57205FEAC96125D403A8CDF8CC
:10435000048000F13E0800250A2200233046394639
:10436000FCF7B8F800EB8002B6F10A0377F100031E
:104370000F46A6EB4202064602F1300208F805207D
:10438000A5F10105E8D205F13F0005F13E076E42B7
:10439000EA43DDF804801EE003A9A44601F13E02D1
:1043A000002100BF06F00F05330905F1300443EA90
:1043B0000776092D46EA171388BF44193F09002BD9
:1043C0005454A1F10101EDD101F13F0001F13E078B
:1043D0004E42CA43644609F0010181F0010303EA39
:1043E0000B03012B05D103AB0238961C03F80780A1
:1043F0000746DAF8005009F00209B54214DDB9F1B8
:10440000000F11D1B8190029A0EB050703A8384403
:10441000A5EB060100F1010002D1202201E000BF5E
:104420003022FCF72CFA2E46B4F1FF3F09DC02984B
:1044300038B1AE4205DC03A8791E013600F80780CA
:104440000F46012E10DB03A838443746451E00BF37
:10445000A978DAE903209047013F05F10105F7D17A
:10446000DAF8080000F00209B9F1000F0DD0DAF80F
:104470000000864209DA00BFDAE9032020219047D4
:104480000136DAF800008642F6DB304613B0BDE8AC
:10449000F08F000000000000030AC2B211B104A0B6
:1044A00001F0BABD0EA011461A4601F0B5BD00BF1D
:1044B000453A204149206572726F72202825732980
:1044C000202D20747970653D307825303278206356
:1044D0006F64653D3078253032780D0A00000000A9
:1044E000453A204149206572726F72202D207479FF
:1044F00070653D30782530327820636F64653D30DB
:1045000078253032780D0A002DE9F04F81B02DED7D
:10451000048BA0B0002800F0FA8001460068002853
:1045200000F0F580896F002900F0F18040F6C02A84
:10453000C2F2004ADAF82810002900F0E8801FA92A
:1045400011AA01F039FB46F251311F980AF1080215
:10455000C0F60001059204F08BFA70A001F05CFD3A
:104560000AF120020023002407CA9268FBF7B2FF79
:104570000DAE324601F0ECFCDDE90E014FF47A7528
:10458000109A00FB051145F24A50C0F6010001F0F7
:1045900043FDDAF828200023DAE906019268FBF7E8
:1045A00099FF324601F0D4FCDDE90E01109A00FBC0
:1045B000051145F22440C0F6010001F02DFD62A076
:1045C00067A169A26AA35DA7009701F025FD69A014
:1045D00001F022FD1F9809A9ADF8244004F0D5F997
:1045E00000286BD000249FED718A0026BDF82400BE
:1045F000DAF82810020101EB0013885824180894F7
:10460000D3E901124FF000034E41FBF763FF0DAAFF
:1046100001F09EFCBDF8260045F25D77C0F601076B
:1046200001B26FF3DF30B1F1FF3F45F23971C0F6EF
:104630000101C8BF0F46BDF82410079103F0EAFC42
:104640000690BDF824000E99DAF828200F9BBDF8DB
:10465000288001FB053B02EB00110001109C49681A
:104660001058DAE9089504F0FDFE00EE100A4846FD
:1046700029464FF47A7520EE089A04F0F3FE00EE16
:10468000100A252004903846DDE9062189EE000A4B
:104690004346CDE900B4089CB7EEC00A8DED020B8D
:1046A00001F0BAFCBDF8240009A90130ADF82400DE
:1046B0001F9804F06AF9002898D100E0002645F21E
:1046C000B650C0F6010001F0A7FCDAF8280000237C
:1046D000314682682046FBF7FDFE0DAA01F038FC4A
:1046E000DDE90E01109B00FB051245F2F07045F666
:1046F000AA01C0F60100C0F6010101F08DFCDAF854
:104700002800FBF7C0FE28210598FCF7C0F820B070
:10471000BDEC048B01B0BDE8F08F00BF0D0A20494D
:104720006E666572656E63652074696D6520627979
:1047300020632D6E6F64650D0A00000074696D655D
:1047400020286D73290000000D0A20252D367325C1
:104750002D323073252D3773202025730D0A00006C
:10476000635F6964000000007479706500000000F8
:1047700069640000202D2D2D2D2D2D2D2D2D2D2D5D
:104780002D2D2D2D2D2D2D2D2D2D2D2D2D2D2D2D59
:104790002D2D2D2D2D2D2D2D2D2D2D2D2D2D2D2D49
:1047A0002D2D2D2D2D2D2D2D0D0A00000000C84280
:1047B00070B590B060B30446006848B3A16F39B3D8
:1047C0000FA901AA01F0F8F940F6C0262821C2F28B
:1047D000004606F108052846FCF759F8A06F0401C9
:1047E00001202146FBF70CFEB06298B146F2513130
:1047F0000F98C0F6000106232A4604F001F938B9E3
:1048000007A001F009FCB06AFBF73DFE0020B06292
:1048100010B070BD0BA0214601F0FEFB10B070BDC2
:10482000573A20756E61626C6520746F20726567FF
:1048300069737465722074686520757365722043AE
:10484000420D0A00573A20656E61626C6520746FF4
:1048500020616C6C6F636174652074686520755F9E
:104860006E6F64655F73746174732028737A3D257D
:104870006429202E2E0D0A0080B584B004F014F9AE
:10488000C1B20023C0F30722C0F3074C05A0CDE955
:10489000001201210122CDF808C001F0BDFB04B0D7
:1048A00080BD00BF0D0A414920706C6174666F7253
:1048B0006D20284150492025642E25642E25642032
:1048C0002D2052554E54494D452025642E25642EE9
:1048D0002564290D0A000000F0B581B00546806905
:1048E00001682C68D0E90232C3A001F095FBE87D95
:1048F000B5F8151041EA0040062809D005280FD167
:10490000A86942680169C2A001F086FB0DE000BF02
:10491000A8694368D0E90412BAA001F07DFB04E065
:10492000A8694168BCA001F077FB0121284602F08C
:104930005FFF0146B9A001F06FFBC4F343400328B9
:104940000CD0012816D1C4F3C611B7A001F064FB46
:1049500004F4F010B0F5802F1CD02DE1C4F3C61183
:10496000AFA001F059FB04F4F010B0F5802F11D086
:1049700022E100BF2002AEA0C4F3C612ADA158BF11
:104980000146ADA001F048FB04F4F010B0F5802F13
:1049900040F01281A86800281CBF01785FEAC1714D
:1049A00016D1C4F3C611072904D8ABA001F034FB1B
:1049B00002E100BFC4F3C05204F07F000244891A30
:1049C000A0F140024031A2A001F026FBF4E000BFBC
:1049D00040680028E5D0468899A037463146042E25
:1049E00028BF042701F018FB002F00F0DB80A86827
:1049F0009FED950A10B30178C9071FD042689FED5B
:104A0000920A3AB1516829B15288002A1CBF09683C
:104A100091ED000A416889B108888007486807D489
:104A200060B1498851B1406890F9001007E000BFBB
:104A300020B1498811B14068017800E00021B7EE4B
:104A4000C00A45F6B410C0F60100009153EC102BDB
:104A500001F0E2FA012F00F0A580A8689FED7A0A24
:104A600020B30178C90721D042689FED770A3AB197
:104A7000516829B15288022A24BF096891ED010AC0
:104A8000416899B108888007486807D470B149889F
:104A900002290BD3406890F9011008E030B1498831
:104AA000022903D34068417801E000BF0021B7EE3E
:104AB000C00A45F6B410C0F60100009153EC102B6B
:104AC00001F0AAFA022F6DD0A8689FED5F0A28B303
:104AD0000178C90722D042689FED5B0A3AB151685C
:104AE00029B15288032A24BF096891ED020A41685E
:104AF000A1B108888007486808D478B1498803299B
:104B00000CD3406890F9021009E000BF30B1498829
:104B1000032903D34068817801E000BF0021B7EE8C
:104B2000C00A45F6B410C0F60100009153EC102BFA
:104B300001F072FA032F35D0A8689FED430A28B31D
:104B40000178C90722D042689FED3F0A3AB1516807
:104B500029B15288042A24BF096891ED030A4168EB
:104B6000A1B108888007486808D478B14988042929
:104B70000CD3406890F9031009E000BF30B14988B8
:104B8000042903D34068C17801E000BF0021B7EEDB
:104B9000C00A45F6B410C0F60100009153EC102B8A
:104BA00001F03AFA45F6AA0028A1C0F60100042E49
:104BB00088BF084601F030FA6E68012128466EB1C0
:104BC00002F016FE214602F00AFE26A10246084621
:104BD000314601B0BDE8F04001F01EBA02F008FE17
:104BE000214602F0FCFD22A102460846114601B012
:104BF000BDE8F04001F010BA2825642C25642C256E
:104C0000642C000025642C25642C256429000000F8
:104C100025642C25642900002564290025642F00C3
:104C2000626F6F6C25640000666C6F6174256400B0
:104C30007500000069000000257325640000000075
:104C40002025643A00000000000000002E2E000025
:104C5000205125642E25640020696E7433322D2581
:104C6000646200002040307825582F256400000041
:104C700020285573657220446F6D61696E292F2558
:104C800064000000000000002DE9F04381B00446FC
:104C900045F6AB00C0F6010001F0BEF945F658102C
:104CA0002168C0F6010001F0B7F961685FA001F06A
:104CB000B3F9A16864A001F0AFF9E16869A001F05F
:104CC000ABF9217D6EA0627DA37D01F0A5F9A169FC
:104CD000087828B145F67310C0F6010001F09CF980
:104CE000217F45F63710627FC0F60100A37F01F0F7
:104CF00093F945F6C500E16AC0F6010001F08CF9B0
:104D000045F6E600616FC0F6010001F085F9B4F8E0
:104D10004A1045F61C10C0F6010001F07DF9B4F808
:104D20004A00D8B145F6AC1845F69E290026C0F6D3
:104D30000108C0F601090027E06C39468519404694
:104D400001F06AF92846FFF7C7FD484601F064F90B
:104D5000B4F84A0001371C368742EDD3B4F842104C
:104D600045F60110C0F6010001F056F9B4F8420012
:104D7000E0B145F6AC1845F69E290026C0F60108BC
:104D8000C0F60109002700BF606C3946851940460E
:104D900001F042F92846FFF79FFD484601F03CF933
:104DA000B4F8420001371C368742EDD3218E45F618
:104DB0008E10628EC0F6010001F02EF9208EB8B17F
:104DC00045F69E2600250FF2DC08C0F601060027F6
:104DD0004046394601F020F9606B2844FFF77CFD1E
:104DE000304601F019F9208E01371C358742EFD388
:104DF000608EB8B145F69E2600250FF2B408C0F6C5
:104E0000010600274046394601F006F9A06B284408
:104E1000FFF762FD304601F0FFF8608E01371C3568
:104E20008742EFD301B0BDE8F08300BF206D6F640F
:104E3000656C207369676E6174757265202020202F
:104E40003A2025730D0A0000206D6F64656C2064A4
:104E500061746574696D6520202020203A202573D7
:104E60000D0A000020636F6D70696C6520646174C9
:104E70006574696D652020203A2025730D0A0000B5
:104E80002072756E74696D652076657273696F6ED8
:104E9000202020203A2025642E25642E25640D0A2A
:104EA000000000002020495B25645D200000000018
:104EB00020204F5B25645D20000000000000000002
:104EC0002DE9F04385B076A001F0A6F845F2847094
:104ED00075A1C0F6010006220023002501F09CF810
:104EE0007AA001F099F801F043F901F021F84EF6AB
:104EF000FC5641F20007CEF20006CEF2000740F267
:104F000001084FF064093068C0F2020840F0807078
:104F100030607D60386840EA0800386064207D6059
:104F2000FCF78EF9786848F21F51C5F2EB1101AC1D
:104F3000A0FB010122464809002101F009F8DDE942
:104F40000201049A00FB091161A001F065F84FF01D
:104F5000FF300021224600F0FBFFDDE902014FF4A3
:104F60007A7200FB021040F6A431C2F200410860E0
:104F7000306840F0807030607D60386840EA08003A
:104F80003860FFF779FC40F6AC40C2F200400560A3
:104F90005EA001F041F80020002100F0D5FD0028BE
:104FA00076D040F6AC4445F2C73945F2EB5745F2AE
:104FB000917806460125C2F20044C0F60109C0F608
:104FC0000107C0F6010800BF4846314601F024F849
:104FD0003846314601F020F800223046214600F0E4
:104FE00053FD010622D1404601F016F8261D206827
:104FF000314600F019FE002820681FD000F020FE86
:105000000028206828D0314600F00EFE90B33046CC
:10501000FFF73AFE0020294600F096FD06460028DC
:1050200005F1010504F18004CED131E045F65E01C1
:10503000C0F60101FFF730FA2AE000BF00F0ACFD36
:1050400045F67101C0F60101FFF726FA206800F06D
:1050500067FD002020601BE000F09EFD45F6860104
:10506000C0F60101FFF718FA206800F059FD002092
:1050700020600DE0206800F08FFD45F67101C0F65C
:105080000101FFF709FA206800F04AFD00202060C6
:105090000320FBF7C9FA002005B0BDE8F08300BF8C
:1050A0000D0A230D0A0000004149207379737465CD
:1050B0006D20706572666F726D616E6365206D65DF
:1050C00061737572656D656E74000000230D0A00D2
:1050D0002054696D657374616D70202020203A2022
:1050E0005379735469636B202B204457542028480C
:1050F000414C5F44656C61792831293D25642E253A
:10510000303364206D73290D0A0000004469736315
:105110006F766572696E6720746865206E65747756
:105120006F726B2873292E2E2E0D0A0000000000CE
:105130002DE9F04F81B02DED088B98B0BFEE009AAD
:1051400040F6AC46C2F200460DF134089FEDE78A06
:105150009FEDE7AA9FEDE7BA3068002800F00684CB
:1051600040F6C02040F67C01C2F20040C2F200418D
:10517000102400780968002845F2286018BF0C0147
:105180007168C0F60100224600F046FFB08E01288B
:105190009CBFF28E012A00F2D783D0B1B06BD0E968
:1051A00000C1D0E90237D0E90465CDE91165CDE948
:1051B0000F37CDE90DC181691391406820B940F2E4
:1051C0007C60C2F20040006840F6AC460E90C2F22D
:1051D0000046002A059400F0ED80501ED6F83CC031
:1051E0000328039202D24FF000096CE040F2806085
:1051F0000025C2F200404FF0000900F1080B22F038
:10520000030004900CEB05000DF1180A00F10C03EB
:105210000AEB0507D0E901460ECB5CF805E04AF839
:1052200005E007F10C0E09F10409C7E901468EE813
:105230000E008169B96144687035002C08BF5BF8C5
:10524000084C0794D0E907E2D0E90936D0E90B41D0
:10525000C7E90B41C7E90936C7E907E2416B796342
:10526000046A002C08BF5BF8044C0794D0E90EE2F6
:10527000D0E91036D0E91241C7E91241C7E910362A
:10528000C7E90EE2016D3965C46B002C08BFDBF87D
:1052900000400794D0E915E2D0E91736D0E919416A
:1052A000C7E91941C7E91736C7E915E2C16EF966C2
:1052B000806D002808BFDBF804000BF1100B07908D
:1052C000049848459ED1C9EBC90006AA0CEB80039F
:1052D0005CF8204002EB8007D3E901E1D3E903B693
:1052E0005D6942F820407D61C7E903B6C7E901E185
:1052F0009869B861586828B940F28060C2F20040ED
:1053000050F82900039940F6AC460129C2F2004644
:1053100007904FD009F1010A06AACAEBCA030CEBA9
:1053200083075CF823E002EB8306D7E9011BD7E98A
:1053300003057C6942F823E07461C6E90305C6E908
:10534000011BB869B0617B682BB940F28060C2F282
:10535000004050F82A30039840F6AC460228C2F2CA
:105360000046079326D009F102090DF1180AC9EB8E
:10537000C9020CEB82035CF822100AEB8207D3E926
:1053800001E5D3E903405E694AF822107E61C7E96E
:105390000340C7E901E59869B861596829B940F245
:1053A0008060C2F2004050F8291040F6AC460791E8
:1053B000C2F2004640F6C020C2F20040007870B150
:1053C00040F67C00C2F2004001680FF2286000F055
:1053D00023FE40F6D400C2F20040FBF70EF940F67F
:1053E000C020059CC2F20040407848B10020012C4A
:1053F00002900DDA4FF0000900274FF0000BF2E0A9
:105400003046FFF7D5F94FF0FF30012C0290F1DB69
:105410004FF0000B4FF00009002704E00BF1010BE7
:10542000A34580F2E080B08E0594CDE90379002891
:1054300000F086804FF0000A09E000BF40F6AC465D
:105440000AF1010AC2F20046B08E824578D2CAEB58
:10545000CA000121DDF8389008EB800758F8204099
:10546000384602F0C5F90028E8D0C4F343400128CB
:1054700018D1A9F104060024FAF788FF00EE100AFB
:10548000B0EE491A01213846351D0134B8EEC00A84
:10549000A0EE081A86ED011A02F0AAF984422E46FF
:1054A000EAD3CBE714F470513ED00024032823D173
:1054B000FAF76CFF00EE100AB0EE4B1A0121B8EEBD
:1054C000C00AA0EE0A1ABDEEC10A10EE100A0028AA
:1054D0004FF00000C8BF012009F80400384601342D
:1054E00002F086F98442E3D3A8E700BF00008030D1
:1054F0000000FE330000FEC2FAF748FF00EE100A7B
:10550000B0EE4B1A0121B8EEC00AA0EE0A1ABDEEA9
:10551000C10A10EE100A09F804003846013402F0FE
:1055200067F98442E8D389E7002400BFFAF72EFF29
:1055300001213846013402F05BF98442F6D37DE75D
:10554000FBF79AFF40F6A43741F20404C2F2004789
:10555000CEF20004414606AAB86000202060206810
:105560007860306800F098FB012833D120687968B2
:10557000451AFBF781FFBA683968801A884207D953
:10558000B0FBF1F04FF0FF320021E0FB025100E0F0
:105590000021DDE9037919EB0509284614AA059CC9
:1055A0004F4100F0D5FC40F6C020C2F20040007828
:1055B00000287FF433AF15980A280FF26440C8BF63
:1055C0005C4600F029FD40F6D400C2F20040FBF733
:1055D00014F823E7306800F0DFFA0FF23441FEF7E9
:1055E0005BFFDDE9037945F69E24C0F60104204601
:1055F00000F012FD204600F00FFD40F6C020002311
:10560000C2F200405A46D0E90601B9EB000067EB50
:105610000101FAF75FFF14AA07460D4600F098FC57
:10562000D6F80490FDF7A0F94DF6836AC4F21B3A50
:10563000A0FB0A018C0CFDF70FF9A0FB0A015A46EA
:105640002346880C316BCDE9000145F2DE30494636
:10565000C0F6010000F0E0FCDDE915014FF47A72BC
:1056600000FB0211179A0FF2BC3000F0D5FC48F293
:10567000A0640023C0F20104384629462246FAF706
:1056800029FF391B75F1000108D245F2594039460E
:10569000C0F6010000F0C0FC0BE000BF014647F679
:1056A0006010CFF6FE7001FB00720FF2A03000F028
:1056B000B3FC6421149AA7FB0170002305FB0105CC
:1056C0004FF0000938462946FAF704FF014645F233
:1056D000B3402522C0F6010000F09EFC326B00238F
:1056E00038462946FAF7F6FE48F21F51C5F2EB118B
:1056F000A0FB011251096FF0630201FB020245F2A7
:105700001750C0F6010000F087FC45F2D260C0F6E9
:10571000010000F081FC45F2ED60C0F6010000F0F0
:105720007BFC45F2DC40B26FC0F60100029900F04C
:1057300073FC3046FEF7E8FE41F2883140468DF8B2
:10574000349000F051FC013000F08A809DF8341054
:1057500001F0DF00442800F08180512876D05228E3
:1057600006D14FF00209A9F1010005287CD9DDE03E
:105770003F294FF0000403D0482918BF682957D1AA
:1057800045F69E25C0F60105284600F045FC45F289
:10579000A660C0F6010000F03FFC45F2AC70C0F618
:1057A000010000F039FC45F28550C0F6010000F020
:1057B00033FCAFA000F030FC45F27940C0F60100A8
:1057C00000F02AFC45F2D070C0F6010000F024FC85
:1057D00045F63A00C0F6010000F01EFC284600F035
:1057E0001BFC45F28860C0F6010000F015FC00BF0C
:1057F00041F2883140468DF8344000F0F5FB01302D
:1058000004D14FF47A70FBF71BFDF1E79DF83410DB
:1058100001F0DF00442821D0512817D05228A0D011
:105820003F294FF003091BD0482918BF682917D01A
:10583000502800F08180582840F076804FF005090C
:10584000A9F1010005280FD970E000BF4FF0010950
:10585000A9F10100052807D968E000BF4FF006094B
:10586000A9F10100052861D8DFE800F08A04602E64
:105870004A5800BF40F6C0200024C2F20040052173
:10588000048040F67C00C2F20040016045F69E2094
:10589000C0F6010000F0C0FB45F20960C0F601004F
:1058A00000F0BAFB306860B100F03AF940B13068FE
:1058B00000F072F945F69701C0F60101FEF7ECFD24
:1058C0003460FFF7FDFA2FE045F69E20C0F6010098
:1058D00000F0A2FB45F28860C0F6010000F09CFBDE
:1058E000002400BF41F2883140468DF8344000F07A
:1058F0007BFB013018D14FF47A70FBF7A1FCF1E784
:1059000040F67C0240F6C021C2F20042C2F20041E1
:10591000012310680B704000106005E040F6C020C5
:105920000121C2F2004041704FF00009B9F1000FAF
:105930003FF412AC13E000BF4FF00409A9F10100DD
:1059400005287FF691AFF1E745F60400C0F60100A7
:1059500000F062FB6420FBF773FC4FF0FF39484610
:1059600018B0BDEC088B01B0BDE8F08F45F21D709A
:10597000C0F6010000F050FB4FF0FF39EFE700BF29
:1059800040F6C0210020C2F20041087045F69E207A
:10599000C0F6010000F040FBEFF31080EFF3108041
:1059A00072B645F20960C0F6010000F035FB3068C0
:1059B00068B100F0B5F840B1306800F0EDF845F698
:1059C0009701C0F60101FEF767FD0020306045F643
:1059D0009E20C0F6010000F01FFB45F26B60C0F690
:1059E000010000F019FB00BF4FF47A70FBF728FCB0
:1059F000FAE700BF50726F66696C696E67206D6F61
:105A0000646520282564292E2E2E0D0A0000000032
:105A100061695F6D6E6574776F726B5F72756E0032
:105A20002E000000206475726174696F6E20202062
:105A300020203A2025642E25303364206D732028E1
:105A400061766572616765290D0A00002043505533
:105A5000206379636C65732020203A20256C6425CF
:105A60006C64202861766572616765290D0A000003
:105A700020205B702C505D2020202020207061753C
:105A800073650D0A000000002DE9F04140F6B834BE
:105A9000C2F2004427462368002B18BF00272BB111
:105AA0004FF4805131200843BDE8F081064678B1BB
:105AB000304615468846FAF701FE072808D145F218
:105AC000BF300722C0F601003146FAF716FE28B1B2
:105AD0004FF4805114200843BDE8F081A5B1404641
